{
  "abi": [
    {
      "anonymous": false,
      "inputs": [
        {
          "indexed": false,
          "internalType": "uint8",
          "name": "x",
          "type": "uint8"
        },
        {
          "indexed": false,
          "internalType": "uint8",
          "name": "y",
          "type": "uint8"
        },
        {
          "indexed": false,
          "internalType": "address",
          "name": "player",
          "type": "address"
        }
      ],
      "name": "ChessSet",
      "type": "event"
    },
    {
      "anonymous": false,
      "inputs": [
        {
          "indexed": false,
          "internalType": "address",
          "name": "winner",
          "type": "address"
        }
      ],
      "name": "GameOver",
      "type": "event"
    },
    {
      "inputs": [],
      "name": "currentPlayer",
      "outputs": [
        {
          "internalType": "address",
          "name": "addr",
          "type": "address"
        },
        {
          "internalType": "bool",
          "name": "isBlack",
          "type": "bool"
        }
      ],
      "stateMutability": "view",
      "type": "function"
    },
    {
      "inputs": [],
      "name": "gameOver",
      "outputs": [
        {
          "internalType": "bool",
          "name": "",
          "type": "bool"
        }
      ],
      "stateMutability": "view",
      "type": "function"
    },
    {
      "inputs": [
        {
          "internalType": "uint8",
          "name": "x",
          "type": "uint8"
        },
        {
          "internalType": "uint8",
          "name": "y",
          "type": "uint8"
        }
      ],
      "name": "play",
      "outputs": [],
      "stateMutability": "nonpayable",
      "type": "function"
    },
    {
      "inputs": [
        {
          "internalType": "uint256",
          "name": "",
          "type": "uint256"
        }
      ],
      "name": "playerList",
      "outputs": [
        {
          "internalType": "address",
          "name": "addr",
          "type": "address"
        },
        {
          "internalType": "bool",
          "name": "isBlack",
          "type": "bool"
        }
      ],
      "stateMutability": "view",
      "type": "function"
    },
    {
      "inputs": [
        {
          "internalType": "address",
          "name": "",
          "type": "address"
        }
      ],
      "name": "playerMapping",
      "outputs": [
        {
          "internalType": "address",
          "name": "addr",
          "type": "address"
        },
        {
          "internalType": "bool",
          "name": "isBlack",
          "type": "bool"
        }
      ],
      "stateMutability": "view",
      "type": "function"
    },
    {
      "inputs": [
        {
          "internalType": "address",
          "name": "_player1",
          "type": "address"
        },
        {
          "internalType": "address",
          "name": "_player2",
          "type": "address"
        }
      ],
      "name": "start",
      "outputs": [],
      "stateMutability": "nonpayable",
      "type": "function"
    },
    {
      "inputs": [],
      "name": "winner",
      "outputs": [
        {
          "internalType": "address",
          "name": "addr",
          "type": "address"
        },
        {
          "internalType": "bool",
          "name": "isBlack",
          "type": "bool"
        }
      ],
      "stateMutability": "view",
      "type": "function"
    }
  ],
  "bytecode": "608060405234801561001057600080fd5b50610a9d806100206000396000f3fe608060405234801561001057600080fd5b506004361061007d5760003560e01c8063bdb337d11161005b578063bdb337d1146100ed578063dfbf53ae1461010a578063e802c36f14610129578063f686af771461013c57600080fd5b80633ccfe887146100825780634404a43814610097578063ae6d9073146100da575b600080fd5b610095610090366004610931565b610171565b005b6012546100b6906001600160a01b03811690600160a01b900460ff1682565b604080516001600160a01b0390931683529015156020830152015b60405180910390f35b6100b66100e8366004610964565b610343565b6014546100fa9060ff1681565b60405190151581526020016100d1565b6013546100b6906001600160a01b03811690600160a01b900460ff1682565b61009561013736600461098e565b61036e565b6100b661014a3660046109b8565b6000602081905290815260409020546001600160a01b03811690600160a01b900460ff1682565b6040805180820182526001600160a01b038481168083526001602080850182815260009384528382528684209551865491519086166001600160a81b031992831617600160a01b91151582021787558751808901895289871680825281850187815290875293869052978520975188549351908716938316939093179215158102929092178755855483546001600160a01b03198082169288169283178655975460ff908590048116151585029184169092171790935586546002805491909616968116871786559654961690941794849004161515909202929092179091555b600f8160ff1610156102e05760005b600f8160ff1610156102cd576000600360ff8416600f8110610285576102856109da565b018260ff16600f811061029a5761029a6109da565b602091828204019190066101000a81548160ff021916908360ff16021790555080806102c590610a06565b915050610261565b50806102d881610a06565b915050610252565b50503360009081526020819052604090208054601280546001600160a01b039092166001600160a01b031983168117825592546001600160a81b0319909216909217600160a01b9182900460ff161515909102179055506014805460ff19169055565b6001816002811061035357600080fd5b01546001600160a01b0381169150600160a01b900460ff1682565b60145460ff16156103b25760405162461bcd60e51b815260206004820152600960248201526823b0b6b29037bb32b960b91b60448201526064015b60405180910390fd5b6012546001600160a01b031633146103fc5760405162461bcd60e51b815260206004820152600d60248201526c2737ba103cb7bab9103a3ab93760991b60448201526064016103a9565b600f8260ff1610801561040d575060015b801561041c5750600f8160ff16105b61045b5760405162461bcd60e51b815260206004820152601060248201526f24b73b30b634b2103837b9b4ba34b7b760811b60448201526064016103a9565b600360ff8316600f8110610471576104716109da565b018160ff16600f8110610486576104866109da565b602081049091015460ff601f9092166101000a900416156104dd5760405162461bcd60e51b8152602060048201526011602482015270141bdcda5d1a5bdb881bd8d8dd5c1a5959607a1b60448201526064016103a9565b601254600160a01b900460ff166104f55760026104f8565b60015b600360ff8416600f811061050e5761050e6109da565b018260ff16600f8110610523576105236109da565b6020808204909201805460ff948516601f9093166101000a92830292850219169190911790556040805185841681529284169183019190915233908201527fd9967ef09da59323a99e7255af5417f707454deb2d106cfa72b65525f86394c49060600160405180910390a16105988282610692565b15610617576014805460ff1916600117905560125460138054600160a01b80840460ff161515026001600160a81b03199091166001600160a01b03909316929092179190911790556040513381527ff556ad7790e70877edcf3b3bb441255def8a405faa0dfdb005a02fa8e557bca99060200160405180910390a15050565b601254600190600160a01b900460ff16610632576000610635565b60015b60ff1660028110610648576106486109da565b018054601280546001600160a01b039092166001600160a01b031983168117825592546001600160a81b0319909216909217600160a01b9182900460ff1615159091021790555050565b60006106a283836001600061070a565b156106af57506001610704565b6106bd83836000600161070a565b156106ca57506001610704565b6106d7838360018061070a565b156106e457506001610704565b6106f38383600019600161070a565b1561070057506001610704565b5060005b92915050565b600080600360ff8716600f8110610723576107236109da565b018560ff16600f8110610738576107386109da565b602081049091015460ff601f9092166101000a90041690506001600061075e8689610a25565b9050600061076c8689610a25565b90505b600f8260ff16108015610780575060015b801561078f5750600f8160ff16105b1561082d578360ff1660036000018360ff16600f81106107b1576107b16109da565b018260ff16600f81106107c6576107c66109da565b602081049091015460ff601f9092166101000a9004160361080b57826107eb81610a06565b9350508260ff1660050361080657600194505050505061090d565b610810565b61082d565b61081a8783610a25565b91506108268682610a25565b905061076f565b610837878a610a46565b91506108438689610a46565b90505b600f8260ff16108015610857575060015b80156108665750600f8160ff16105b15610904578360ff1660036000018360ff16600f8110610888576108886109da565b018260ff16600f811061089d5761089d6109da565b602081049091015460ff601f9092166101000a900416036108e257826108c281610a06565b9350508260ff166005036108dd57600194505050505061090d565b6108e7565b610904565b6108f18783610a46565b91506108fd8682610a46565b9050610846565b60009450505050505b949350505050565b80356001600160a01b038116811461092c57600080fd5b919050565b6000806040838503121561094457600080fd5b61094d83610915565b915061095b60208401610915565b90509250929050565b60006020828403121561097657600080fd5b5035919050565b803560ff8116811461092c57600080fd5b600080604083850312156109a157600080fd5b6109aa8361097d565b915061095b6020840161097d565b6000602082840312156109ca57600080fd5b6109d382610915565b9392505050565b634e487b7160e01b600052603260045260246000fd5b634e487b7160e01b600052601160045260246000fd5b600060ff821660ff8103610a1c57610a1c6109f0565b60010192915050565b600081810b9083900b01607f8113607f1982121715610704576107046109f0565b600082810b9082900b03607f198112607f82131715610704576107046109f056fea26469706673582212205a292b1bc3097a911bebf8dd3bce70e35992eaf622d26296ac4cf24de9b37cf664736f6c63430008110033",
  "bytecodeSha1": "72298a26100bfca15de073efa09d9d395431581f",
  "compiler": {
    "evm_version": "istanbul",
    "optimizer": {
      "enabled": true,
      "runs": 200
    },
    "version": "0.8.17+commit.8df45f5f"
  },
  "contractName": "Gobang",
  "language": "Solidity",
  "natspec": {
    "kind": "dev",
    "methods": {},
    "version": 1
  },
  "opcodes": "PUSH1 0x80 PUSH1 0x40 MSTORE CALLVALUE DUP1 ISZERO PUSH2 0x10 JUMPI PUSH1 0x0 DUP1 REVERT JUMPDEST POP PUSH1 0x4 CALLDATASIZE LT PUSH2 0x7D JUMPI PUSH1 0x0 CALLDATALOAD PUSH1 0xE0 SHR DUP1 PUSH4 0xBDB337D1 GT PUSH2 0x5B JUMPI DUP1 PUSH4 0xBDB337D1 EQ PUSH2 0xED JUMPI DUP1 PUSH4 0xDFBF53AE EQ PUSH2 0x10A JUMPI DUP1 PUSH4 0xE802C36F EQ PUSH2 0x129 JUMPI DUP1 PUSH4 0xF686AF77 EQ PUSH2 0x13C JUMPI PUSH1 0x0 DUP1 REVERT JUMPDEST DUP1 PUSH4 0x3CCFE887 EQ PUSH2 0x82 JUMPI DUP1 PUSH4 0x4404A438 EQ PUSH2 0x97 JUMPI DUP1 PUSH4 0xAE6D9073 EQ PUSH2 0xDA JUMPI JUMPDEST PUSH1 0x0 DUP1 REVERT JUMPDEST PUSH2 0x95 PUSH2 0x90 CALLDATASIZE PUSH1 0x4 PUSH2 0x931 JUMP JUMPDEST PUSH2 0x171 JUMP JUMPDEST STOP JUMPDEST PUSH1 0x12 SLOAD PUSH2 0xB6 SWAP1 PUSH1 0x1 PUSH1 0x1 PUSH1 0xA0 SHL SUB DUP2 AND SWAP1 PUSH1 0x1 PUSH1 0xA0 SHL SWAP1 DIV PUSH1 0xFF AND DUP3 JUMP JUMPDEST PUSH1 0x40 DUP1 MLOAD PUSH1 0x1 PUSH1 0x1 PUSH1 0xA0 SHL SUB SWAP1 SWAP4 AND DUP4 MSTORE SWAP1 ISZERO ISZERO PUSH1 0x20 DUP4 ADD MSTORE ADD JUMPDEST PUSH1 0x40 MLOAD DUP1 SWAP2 SUB SWAP1 RETURN JUMPDEST PUSH2 0xB6 PUSH2 0xE8 CALLDATASIZE PUSH1 0x4 PUSH2 0x964 JUMP JUMPDEST PUSH2 0x343 JUMP JUMPDEST PUSH1 0x14 SLOAD PUSH2 0xFA SWAP1 PUSH1 0xFF AND DUP2 JUMP JUMPDEST PUSH1 0x40 MLOAD SWAP1 ISZERO ISZERO DUP2 MSTORE PUSH1 0x20 ADD PUSH2 0xD1 JUMP JUMPDEST PUSH1 0x13 SLOAD PUSH2 0xB6 SWAP1 PUSH1 0x1 PUSH1 0x1 PUSH1 0xA0 SHL SUB DUP2 AND SWAP1 PUSH1 0x1 PUSH1 0xA0 SHL SWAP1 DIV PUSH1 0xFF AND DUP3 JUMP JUMPDEST PUSH2 0x95 PUSH2 0x137 CALLDATASIZE PUSH1 0x4 PUSH2 0x98E JUMP JUMPDEST PUSH2 0x36E JUMP JUMPDEST PUSH2 0xB6 PUSH2 0x14A CALLDATASIZE PUSH1 0x4 PUSH2 0x9B8 JUMP JUMPDEST PUSH1 0x0 PUSH1 0x20 DUP2 SWAP1 MSTORE SWAP1 DUP2 MSTORE PUSH1 0x40 SWAP1 KECCAK256 SLOAD PUSH1 0x1 PUSH1 0x1 PUSH1 0xA0 SHL SUB DUP2 AND SWAP1 PUSH1 0x1 PUSH1 0xA0 SHL SWAP1 DIV PUSH1 0xFF AND DUP3 JUMP JUMPDEST PUSH1 0x40 DUP1 MLOAD DUP1 DUP3 ADD DUP3 MSTORE PUSH1 0x1 PUSH1 0x1 PUSH1 0xA0 SHL SUB DUP5 DUP2 AND DUP1 DUP4 MSTORE PUSH1 0x1 PUSH1 0x20 DUP1 DUP6 ADD DUP3 DUP2 MSTORE PUSH1 0x0 SWAP4 DUP5 MSTORE DUP4 DUP3 MSTORE DUP7 DUP5 KECCAK256 SWAP6 MLOAD DUP7 SLOAD SWAP2 MLOAD SWAP1 DUP7 AND PUSH1 0x1 PUSH1 0x1 PUSH1 0xA8 SHL SUB NOT SWAP3 DUP4 AND OR PUSH1 0x1 PUSH1 0xA0 SHL SWAP2 ISZERO ISZERO DUP3 MUL OR DUP8 SSTORE DUP8 MLOAD DUP1 DUP10 ADD DUP10 MSTORE DUP10 DUP8 AND DUP1 DUP3 MSTORE DUP2 DUP6 ADD DUP8 DUP2 MSTORE SWAP1 DUP8 MSTORE SWAP4 DUP7 SWAP1 MSTORE SWAP8 DUP6 KECCAK256 SWAP8 MLOAD DUP9 SLOAD SWAP4 MLOAD SWAP1 DUP8 AND SWAP4 DUP4 AND SWAP4 SWAP1 SWAP4 OR SWAP3 ISZERO ISZERO DUP2 MUL SWAP3 SWAP1 SWAP3 OR DUP8 SSTORE DUP6 SLOAD DUP4 SLOAD PUSH1 0x1 PUSH1 0x1 PUSH1 0xA0 SHL SUB NOT DUP1 DUP3 AND SWAP3 DUP9 AND SWAP3 DUP4 OR DUP7 SSTORE SWAP8 SLOAD PUSH1 0xFF SWAP1 DUP6 SWAP1 DIV DUP2 AND ISZERO ISZERO DUP6 MUL SWAP2 DUP5 AND SWAP1 SWAP3 OR OR SWAP1 SWAP4 SSTORE DUP7 SLOAD PUSH1 0x2 DUP1 SLOAD SWAP2 SWAP1 SWAP7 AND SWAP7 DUP2 AND DUP8 OR DUP7 SSTORE SWAP7 SLOAD SWAP7 AND SWAP1 SWAP5 OR SWAP5 DUP5 SWAP1 DIV AND ISZERO ISZERO SWAP1 SWAP3 MUL SWAP3 SWAP1 SWAP3 OR SWAP1 SWAP2 SSTORE JUMPDEST PUSH1 0xF DUP2 PUSH1 0xFF AND LT ISZERO PUSH2 0x2E0 JUMPI PUSH1 0x0 JUMPDEST PUSH1 0xF DUP2 PUSH1 0xFF AND LT ISZERO PUSH2 0x2CD JUMPI PUSH1 0x0 PUSH1 0x3 PUSH1 0xFF DUP5 AND PUSH1 0xF DUP2 LT PUSH2 0x285 JUMPI PUSH2 0x285 PUSH2 0x9DA JUMP JUMPDEST ADD DUP3 PUSH1 0xFF AND PUSH1 0xF DUP2 LT PUSH2 0x29A JUMPI PUSH2 0x29A PUSH2 0x9DA JUMP JUMPDEST PUSH1 0x20 SWAP2 DUP3 DUP3 DIV ADD SWAP2 SWAP1 MOD PUSH2 0x100 EXP DUP2 SLOAD DUP2 PUSH1 0xFF MUL NOT AND SWAP1 DUP4 PUSH1 0xFF AND MUL OR SWAP1 SSTORE POP DUP1 DUP1 PUSH2 0x2C5 SWAP1 PUSH2 0xA06 JUMP JUMPDEST SWAP2 POP POP PUSH2 0x261 JUMP JUMPDEST POP DUP1 PUSH2 0x2D8 DUP2 PUSH2 0xA06 JUMP JUMPDEST SWAP2 POP POP PUSH2 0x252 JUMP JUMPDEST POP POP CALLER PUSH1 0x0 SWAP1 DUP2 MSTORE PUSH1 0x20 DUP2 SWAP1 MSTORE PUSH1 0x40 SWAP1 KECCAK256 DUP1 SLOAD PUSH1 0x12 DUP1 SLOAD PUSH1 0x1 PUSH1 0x1 PUSH1 0xA0 SHL SUB SWAP1 SWAP3 AND PUSH1 0x1 PUSH1 0x1 PUSH1 0xA0 SHL SUB NOT DUP4 AND DUP2 OR DUP3 SSTORE SWAP3 SLOAD PUSH1 0x1 PUSH1 0x1 PUSH1 0xA8 SHL SUB NOT SWAP1 SWAP3 AND SWAP1 SWAP3 OR PUSH1 0x1 PUSH1 0xA0 SHL SWAP2 DUP3 SWAP1 DIV PUSH1 0xFF AND ISZERO ISZERO SWAP1 SWAP2 MUL OR SWAP1 SSTORE POP PUSH1 0x14 DUP1 SLOAD PUSH1 0xFF NOT AND SWAP1 SSTORE JUMP JUMPDEST PUSH1 0x1 DUP2 PUSH1 0x2 DUP2 LT PUSH2 0x353 JUMPI PUSH1 0x0 DUP1 REVERT JUMPDEST ADD SLOAD PUSH1 0x1 PUSH1 0x1 PUSH1 0xA0 SHL SUB DUP2 AND SWAP2 POP PUSH1 0x1 PUSH1 0xA0 SHL SWAP1 DIV PUSH1 0xFF AND DUP3 JUMP JUMPDEST PUSH1 0x14 SLOAD PUSH1 0xFF AND ISZERO PUSH2 0x3B2 JUMPI PUSH1 0x40 MLOAD PUSH3 0x461BCD PUSH1 0xE5 SHL DUP2 MSTORE PUSH1 0x20 PUSH1 0x4 DUP3 ADD MSTORE PUSH1 0x9 PUSH1 0x24 DUP3 ADD MSTORE PUSH9 0x23B0B6B29037BB32B9 PUSH1 0xB9 SHL PUSH1 0x44 DUP3 ADD MSTORE PUSH1 0x64 ADD JUMPDEST PUSH1 0x40 MLOAD DUP1 SWAP2 SUB SWAP1 REVERT JUMPDEST PUSH1 0x12 SLOAD PUSH1 0x1 PUSH1 0x1 PUSH1 0xA0 SHL SUB AND CALLER EQ PUSH2 0x3FC JUMPI PUSH1 0x40 MLOAD PUSH3 0x461BCD PUSH1 0xE5 SHL DUP2 MSTORE PUSH1 0x20 PUSH1 0x4 DUP3 ADD MSTORE PUSH1 0xD PUSH1 0x24 DUP3 ADD MSTORE PUSH13 0x2737BA103CB7BAB9103A3AB937 PUSH1 0x99 SHL PUSH1 0x44 DUP3 ADD MSTORE PUSH1 0x64 ADD PUSH2 0x3A9 JUMP JUMPDEST PUSH1 0xF DUP3 PUSH1 0xFF AND LT DUP1 ISZERO PUSH2 0x40D JUMPI POP PUSH1 0x1 JUMPDEST DUP1 ISZERO PUSH2 0x41C JUMPI POP PUSH1 0xF DUP2 PUSH1 0xFF AND LT JUMPDEST PUSH2 0x45B JUMPI PUSH1 0x40 MLOAD PUSH3 0x461BCD PUSH1 0xE5 SHL DUP2 MSTORE PUSH1 0x20 PUSH1 0x4 DUP3 ADD MSTORE PUSH1 0x10 PUSH1 0x24 DUP3 ADD MSTORE PUSH16 0x24B73B30B634B2103837B9B4BA34B7B7 PUSH1 0x81 SHL PUSH1 0x44 DUP3 ADD MSTORE PUSH1 0x64 ADD PUSH2 0x3A9 JUMP JUMPDEST PUSH1 0x3 PUSH1 0xFF DUP4 AND PUSH1 0xF DUP2 LT PUSH2 0x471 JUMPI PUSH2 0x471 PUSH2 0x9DA JUMP JUMPDEST ADD DUP2 PUSH1 0xFF AND PUSH1 0xF DUP2 LT PUSH2 0x486 JUMPI PUSH2 0x486 PUSH2 0x9DA JUMP JUMPDEST PUSH1 0x20 DUP2 DIV SWAP1 SWAP2 ADD SLOAD PUSH1 0xFF PUSH1 0x1F SWAP1 SWAP3 AND PUSH2 0x100 EXP SWAP1 DIV AND ISZERO PUSH2 0x4DD JUMPI PUSH1 0x40 MLOAD PUSH3 0x461BCD PUSH1 0xE5 SHL DUP2 MSTORE PUSH1 0x20 PUSH1 0x4 DUP3 ADD MSTORE PUSH1 0x11 PUSH1 0x24 DUP3 ADD MSTORE PUSH17 0x141BDCDA5D1A5BDB881BD8D8DD5C1A5959 PUSH1 0x7A SHL PUSH1 0x44 DUP3 ADD MSTORE PUSH1 0x64 ADD PUSH2 0x3A9 JUMP JUMPDEST PUSH1 0x12 SLOAD PUSH1 0x1 PUSH1 0xA0 SHL SWAP1 DIV PUSH1 0xFF AND PUSH2 0x4F5 JUMPI PUSH1 0x2 PUSH2 0x4F8 JUMP JUMPDEST PUSH1 0x1 JUMPDEST PUSH1 0x3 PUSH1 0xFF DUP5 AND PUSH1 0xF DUP2 LT PUSH2 0x50E JUMPI PUSH2 0x50E PUSH2 0x9DA JUMP JUMPDEST ADD DUP3 PUSH1 0xFF AND PUSH1 0xF DUP2 LT PUSH2 0x523 JUMPI PUSH2 0x523 PUSH2 0x9DA JUMP JUMPDEST PUSH1 0x20 DUP1 DUP3 DIV SWAP1 SWAP3 ADD DUP1 SLOAD PUSH1 0xFF SWAP5 DUP6 AND PUSH1 0x1F SWAP1 SWAP4 AND PUSH2 0x100 EXP SWAP3 DUP4 MUL SWAP3 DUP6 MUL NOT AND SWAP2 SWAP1 SWAP2 OR SWAP1 SSTORE PUSH1 0x40 DUP1 MLOAD DUP6 DUP5 AND DUP2 MSTORE SWAP3 DUP5 AND SWAP2 DUP4 ADD SWAP2 SWAP1 SWAP2 MSTORE CALLER SWAP1 DUP3 ADD MSTORE PUSH32 0xD9967EF09DA59323A99E7255AF5417F707454DEB2D106CFA72B65525F86394C4 SWAP1 PUSH1 0x60 ADD PUSH1 0x40 MLOAD DUP1 SWAP2 SUB SWAP1 LOG1 PUSH2 0x598 DUP3 DUP3 PUSH2 0x692 JUMP JUMPDEST ISZERO PUSH2 0x617 JUMPI PUSH1 0x14 DUP1 SLOAD PUSH1 0xFF NOT AND PUSH1 0x1 OR SWAP1 SSTORE PUSH1 0x12 SLOAD PUSH1 0x13 DUP1 SLOAD PUSH1 0x1 PUSH1 0xA0 SHL DUP1 DUP5 DIV PUSH1 0xFF AND ISZERO ISZERO MUL PUSH1 0x1 PUSH1 0x1 PUSH1 0xA8 SHL SUB NOT SWAP1 SWAP2 AND PUSH1 0x1 PUSH1 0x1 PUSH1 0xA0 SHL SUB SWAP1 SWAP4 AND SWAP3 SWAP1 SWAP3 OR SWAP2 SWAP1 SWAP2 OR SWAP1 SSTORE PUSH1 0x40 MLOAD CALLER DUP2 MSTORE PUSH32 0xF556AD7790E70877EDCF3B3BB441255DEF8A405FAA0DFDB005A02FA8E557BCA9 SWAP1 PUSH1 0x20 ADD PUSH1 0x40 MLOAD DUP1 SWAP2 SUB SWAP1 LOG1 POP POP JUMP JUMPDEST PUSH1 0x12 SLOAD PUSH1 0x1 SWAP1 PUSH1 0x1 PUSH1 0xA0 SHL SWAP1 DIV PUSH1 0xFF AND PUSH2 0x632 JUMPI PUSH1 0x0 PUSH2 0x635 JUMP JUMPDEST PUSH1 0x1 JUMPDEST PUSH1 0xFF AND PUSH1 0x2 DUP2 LT PUSH2 0x648 JUMPI PUSH2 0x648 PUSH2 0x9DA JUMP JUMPDEST ADD DUP1 SLOAD PUSH1 0x12 DUP1 SLOAD PUSH1 0x1 PUSH1 0x1 PUSH1 0xA0 SHL SUB SWAP1 SWAP3 AND PUSH1 0x1 PUSH1 0x1 PUSH1 0xA0 SHL SUB NOT DUP4 AND DUP2 OR DUP3 SSTORE SWAP3 SLOAD PUSH1 0x1 PUSH1 0x1 PUSH1 0xA8 SHL SUB NOT SWAP1 SWAP3 AND SWAP1 SWAP3 OR PUSH1 0x1 PUSH1 0xA0 SHL SWAP2 DUP3 SWAP1 DIV PUSH1 0xFF AND ISZERO ISZERO SWAP1 SWAP2 MUL OR SWAP1 SSTORE POP POP JUMP JUMPDEST PUSH1 0x0 PUSH2 0x6A2 DUP4 DUP4 PUSH1 0x1 PUSH1 0x0 PUSH2 0x70A JUMP JUMPDEST ISZERO PUSH2 0x6AF JUMPI POP PUSH1 0x1 PUSH2 0x704 JUMP JUMPDEST PUSH2 0x6BD DUP4 DUP4 PUSH1 0x0 PUSH1 0x1 PUSH2 0x70A JUMP JUMPDEST ISZERO PUSH2 0x6CA JUMPI POP PUSH1 0x1 PUSH2 0x704 JUMP JUMPDEST PUSH2 0x6D7 DUP4 DUP4 PUSH1 0x1 DUP1 PUSH2 0x70A JUMP JUMPDEST ISZERO PUSH2 0x6E4 JUMPI POP PUSH1 0x1 PUSH2 0x704 JUMP JUMPDEST PUSH2 0x6F3 DUP4 DUP4 PUSH1 0x0 NOT PUSH1 0x1 PUSH2 0x70A JUMP JUMPDEST ISZERO PUSH2 0x700 JUMPI POP PUSH1 0x1 PUSH2 0x704 JUMP JUMPDEST POP PUSH1 0x0 JUMPDEST SWAP3 SWAP2 POP POP JUMP JUMPDEST PUSH1 0x0 DUP1 PUSH1 0x3 PUSH1 0xFF DUP8 AND PUSH1 0xF DUP2 LT PUSH2 0x723 JUMPI PUSH2 0x723 PUSH2 0x9DA JUMP JUMPDEST ADD DUP6 PUSH1 0xFF AND PUSH1 0xF DUP2 LT PUSH2 0x738 JUMPI PUSH2 0x738 PUSH2 0x9DA JUMP JUMPDEST PUSH1 0x20 DUP2 DIV SWAP1 SWAP2 ADD SLOAD PUSH1 0xFF PUSH1 0x1F SWAP1 SWAP3 AND PUSH2 0x100 EXP SWAP1 DIV AND SWAP1 POP PUSH1 0x1 PUSH1 0x0 PUSH2 0x75E DUP7 DUP10 PUSH2 0xA25 JUMP JUMPDEST SWAP1 POP PUSH1 0x0 PUSH2 0x76C DUP7 DUP10 PUSH2 0xA25 JUMP JUMPDEST SWAP1 POP JUMPDEST PUSH1 0xF DUP3 PUSH1 0xFF AND LT DUP1 ISZERO PUSH2 0x780 JUMPI POP PUSH1 0x1 JUMPDEST DUP1 ISZERO PUSH2 0x78F JUMPI POP PUSH1 0xF DUP2 PUSH1 0xFF AND LT JUMPDEST ISZERO PUSH2 0x82D JUMPI DUP4 PUSH1 0xFF AND PUSH1 0x3 PUSH1 0x0 ADD DUP4 PUSH1 0xFF AND PUSH1 0xF DUP2 LT PUSH2 0x7B1 JUMPI PUSH2 0x7B1 PUSH2 0x9DA JUMP JUMPDEST ADD DUP3 PUSH1 0xFF AND PUSH1 0xF DUP2 LT PUSH2 0x7C6 JUMPI PUSH2 0x7C6 PUSH2 0x9DA JUMP JUMPDEST PUSH1 0x20 DUP2 DIV SWAP1 SWAP2 ADD SLOAD PUSH1 0xFF PUSH1 0x1F SWAP1 SWAP3 AND PUSH2 0x100 EXP SWAP1 DIV AND SUB PUSH2 0x80B JUMPI DUP3 PUSH2 0x7EB DUP2 PUSH2 0xA06 JUMP JUMPDEST SWAP4 POP POP DUP3 PUSH1 0xFF AND PUSH1 0x5 SUB PUSH2 0x806 JUMPI PUSH1 0x1 SWAP5 POP POP POP POP POP PUSH2 0x90D JUMP JUMPDEST PUSH2 0x810 JUMP JUMPDEST PUSH2 0x82D JUMP JUMPDEST PUSH2 0x81A DUP8 DUP4 PUSH2 0xA25 JUMP JUMPDEST SWAP2 POP PUSH2 0x826 DUP7 DUP3 PUSH2 0xA25 JUMP JUMPDEST SWAP1 POP PUSH2 0x76F JUMP JUMPDEST PUSH2 0x837 DUP8 DUP11 PUSH2 0xA46 JUMP JUMPDEST SWAP2 POP PUSH2 0x843 DUP7 DUP10 PUSH2 0xA46 JUMP JUMPDEST SWAP1 POP JUMPDEST PUSH1 0xF DUP3 PUSH1 0xFF AND LT DUP1 ISZERO PUSH2 0x857 JUMPI POP PUSH1 0x1 JUMPDEST DUP1 ISZERO PUSH2 0x866 JUMPI POP PUSH1 0xF DUP2 PUSH1 0xFF AND LT JUMPDEST ISZERO PUSH2 0x904 JUMPI DUP4 PUSH1 0xFF AND PUSH1 0x3 PUSH1 0x0 ADD DUP4 PUSH1 0xFF AND PUSH1 0xF DUP2 LT PUSH2 0x888 JUMPI PUSH2 0x888 PUSH2 0x9DA JUMP JUMPDEST ADD DUP3 PUSH1 0xFF AND PUSH1 0xF DUP2 LT PUSH2 0x89D JUMPI PUSH2 0x89D PUSH2 0x9DA JUMP JUMPDEST PUSH1 0x20 DUP2 DIV SWAP1 SWAP2 ADD SLOAD PUSH1 0xFF PUSH1 0x1F SWAP1 SWAP3 AND PUSH2 0x100 EXP SWAP1 DIV AND SUB PUSH2 0x8E2 JUMPI DUP3 PUSH2 0x8C2 DUP2 PUSH2 0xA06 JUMP JUMPDEST SWAP4 POP POP DUP3 PUSH1 0xFF AND PUSH1 0x5 SUB PUSH2 0x8DD JUMPI PUSH1 0x1 SWAP5 POP POP POP POP POP PUSH2 0x90D JUMP JUMPDEST PUSH2 0x8E7 JUMP JUMPDEST PUSH2 0x904 JUMP JUMPDEST PUSH2 0x8F1 DUP8 DUP4 PUSH2 0xA46 JUMP JUMPDEST SWAP2 POP PUSH2 0x8FD DUP7 DUP3 PUSH2 0xA46 JUMP JUMPDEST SWAP1 POP PUSH2 0x846 JUMP JUMPDEST PUSH1 0x0 SWAP5 POP POP POP POP POP JUMPDEST SWAP5 SWAP4 POP POP POP POP JUMP JUMPDEST DUP1 CALLDATALOAD PUSH1 0x1 PUSH1 0x1 PUSH1 0xA0 SHL SUB DUP2 AND DUP2 EQ PUSH2 0x92C JUMPI PUSH1 0x0 DUP1 REVERT JUMPDEST SWAP2 SWAP1 POP JUMP JUMPDEST PUSH1 0x0 DUP1 PUSH1 0x40 DUP4 DUP6 SUB SLT ISZERO PUSH2 0x944 JUMPI PUSH1 0x0 DUP1 REVERT JUMPDEST PUSH2 0x94D DUP4 PUSH2 0x915 JUMP JUMPDEST SWAP2 POP PUSH2 0x95B PUSH1 0x20 DUP5 ADD PUSH2 0x915 JUMP JUMPDEST SWAP1 POP SWAP3 POP SWAP3 SWAP1 POP JUMP JUMPDEST PUSH1 0x0 PUSH1 0x20 DUP3 DUP5 SUB SLT ISZERO PUSH2 0x976 JUMPI PUSH1 0x0 DUP1 REVERT JUMPDEST POP CALLDATALOAD SWAP2 SWAP1 POP JUMP JUMPDEST DUP1 CALLDATALOAD PUSH1 0xFF DUP2 AND DUP2 EQ PUSH2 0x92C JUMPI PUSH1 0x0 DUP1 REVERT JUMPDEST PUSH1 0x0 DUP1 PUSH1 0x40 DUP4 DUP6 SUB SLT ISZERO PUSH2 0x9A1 JUMPI PUSH1 0x0 DUP1 REVERT JUMPDEST PUSH2 0x9AA DUP4 PUSH2 0x97D JUMP JUMPDEST SWAP2 POP PUSH2 0x95B PUSH1 0x20 DUP5 ADD PUSH2 0x97D JUMP JUMPDEST PUSH1 0x0 PUSH1 0x20 DUP3 DUP5 SUB SLT ISZERO PUSH2 0x9CA JUMPI PUSH1 0x0 DUP1 REVERT JUMPDEST PUSH2 0x9D3 DUP3 PUSH2 0x915 JUMP JUMPDEST SWAP4 SWAP3 POP POP POP JUMP JUMPDEST PUSH4 0x4E487B71 PUSH1 0xE0 SHL PUSH1 0x0 MSTORE PUSH1 0x32 PUSH1 0x4 MSTORE PUSH1 0x24 PUSH1 0x0 REVERT JUMPDEST PUSH4 0x4E487B71 PUSH1 0xE0 SHL PUSH1 0x0 MSTORE PUSH1 0x11 PUSH1 0x4 MSTORE PUSH1 0x24 PUSH1 0x0 REVERT JUMPDEST PUSH1 0x0 PUSH1 0xFF DUP3 AND PUSH1 0xFF DUP2 SUB PUSH2 0xA1C JUMPI PUSH2 0xA1C PUSH2 0x9F0 JUMP JUMPDEST PUSH1 0x1 ADD SWAP3 SWAP2 POP POP JUMP JUMPDEST PUSH1 0x0 DUP2 DUP2 SIGNEXTEND SWAP1 DUP4 SWAP1 SIGNEXTEND ADD PUSH1 0x7F DUP2 SGT PUSH1 0x7F NOT DUP3 SLT OR ISZERO PUSH2 0x704 JUMPI PUSH2 0x704 PUSH2 0x9F0 JUMP JUMPDEST PUSH1 0x0 DUP3 DUP2 SIGNEXTEND SWAP1 DUP3 SWAP1 SIGNEXTEND SUB PUSH1 0x7F NOT DUP2 SLT PUSH1 0x7F DUP3 SGT OR ISZERO PUSH2 0x704 JUMPI PUSH2 0x704 PUSH2 0x9F0 JUMP INVALID LOG2 PUSH5 0x6970667358 0x22 SLT KECCAK256 GAS 0x29 0x2B SHL 0xC3 MULMOD PUSH27 0x911BEBF8DD3BCE70E35992EAF622D26296AC4CF24DE9B37CF66473 PUSH16 0x6C634300081100330000000000000000 ",
  "sha1": "0a2f217470a24f0bab5abb0ca786942e00f5ed55",
  "source": "pragma solidity ^0.8.0;\n\ncontract Gobang {\n    // 定义玩家结构体\n    struct Player {\n        address addr;\n        bool isBlack;\n    }\n\n    // 定义棋盘状态结构体\n    struct Chessboard {\n        uint8[15][15] cells;\n    }\n\n    mapping(address => Player) public playerMapping;\n    Player[2] public playerList;\n\n    // 定义棋盘状态\n    Chessboard chessboard;\n\n    // 定义当前玩家\n    Player public currentPlayer;\n\n    Player public winner;\n\n    // 定义游戏结束标志\n    bool public gameOver;\n\n    function start(address _player1, address _player2) public {\n        // 初始化玩家信息\n        playerMapping[_player1] = Player(_player1, true);\n        playerMapping[_player2] = Player(_player2, false);\n\n        playerList[0] = playerMapping[_player1];\n        playerList[1] = playerMapping[_player2];\n\n        // 初始化棋盘状态\n        for (uint8 i = 0; i < 15; i++) {\n            for (uint8 j = 0; j < 15; j++) {\n                chessboard.cells[i][j] = 0;\n            }\n        }\n\n        // 初始化当前玩家\n        currentPlayer = playerMapping[msg.sender];\n\n        // 初始化游戏结束标志\n        gameOver = false;\n    }\n\n    // 公开函数，用于接收玩家的落子请求\n    function play(uint8 x, uint8 y) public {\n        // 检查游戏是否已结束\n        require(!gameOver, \"Game over\");\n        // 检查玩家是否合法\n        require(msg.sender == currentPlayer.addr, \"Not your turn\");\n        // 检查落子坐标是否合法\n        require(x >= 0 && x < 15 && y >= 0 && y < 15, \"Invalid position\");\n        // 检查该位置是否已落子\n        require(chessboard.cells[x][y] == 0 , \"Position occupied\");\n        // 落子\n        chessboard.cells[x][y] = currentPlayer.isBlack ? 1 : 2;\n        emit ChessSet(x, y, msg.sender);\n        if (checkWin(x,y)) {\n            gameOver = true;\n            winner = currentPlayer;\n            emit GameOver(msg.sender);\n        }else{\n            currentPlayer = playerList[currentPlayer.isBlack ? 1 : 0];\n        }\n    }\n\n    // 私有函数，用于检查游戏是否结束\n    function checkWin(uint8 x, uint8 y) private view returns (bool) {\n        // 检查水平方向是否连成五子\n        if (checkLine(x, y, 1, 0)) return true;\n        // 检查竖直方向是否连成五子\n        if (checkLine(x, y, 0, 1)) return true;\n        // 检查斜线方向是否连成五子\n        if (checkLine(x, y, 1, 1)) return true;\n        if (checkLine(x, y, -1, 1)) return true;\n        return false;\n    }\n\n    // 私有函数，用于检查单行是否连成五子\n    function checkLine(uint8 x, uint8 y, int8 dx, int8 dy) private view returns (bool) {\n        uint8 color = chessboard.cells[x][y];\n        uint8 count = 1;\n        // 向左搜索\n        uint8 i = uint8(int8(x) + dx);\n        uint8 j = uint8(int8(y) + dy);\n        for (; i >= 0 && i < 15 && j >= 0 && j < 15;) {\n            if (chessboard.cells[i][j] == color) {\n                count++;\n                if (count == 5) return true;\n            } else {\n                break;\n            }\n            i = uint8(int8(i) + dx);\n            j = uint8(int8(j) + dy);\n        }\n        // 向右搜索\n        i = uint8(int8(x) - dx);\n        j = uint8(int8(y) - dy);\n        for (; i >= 0 && i < 15 && j >= 0 && j < 15;) {\n            if (chessboard.cells[i][j] == color) {\n                count++;\n                if (count == 5) return true;\n            } else {\n                break;\n            }\n        i = uint8(int8(i) - dx);\n        j = uint8(int8(j) - dy);\n        }\n        return false;\n    }\n\n    event GameOver(address winner);\n\n    event ChessSet(uint8 x, uint8 y, address player);\n}",
  "sourcePath": "contracts/Gobang.sol",
  "type": "contract"
}